{
  "_format": "hh-sol-artifact-1",
  "contractName": "MintNFT",
  "sourceName": "contracts/MintNFT.sol",
  "abi": [
    {
      "inputs": [
        {
          "internalType": "string",
          "name": "url",
          "type": "string"
        },
        {
          "internalType": "uint256[]",
          "name": "quantities",
          "type": "uint256[]"
        }
      ],
      "stateMutability": "nonpayable",
      "type": "constructor"
    },
    {
      "anonymous": false,
      "inputs": [
        {
          "indexed": true,
          "internalType": "address",
          "name": "account",
          "type": "address"
        },
        {
          "indexed": true,
          "internalType": "address",
          "name": "operator",
          "type": "address"
        },
        {
          "indexed": false,
          "internalType": "bool",
          "name": "approved",
          "type": "bool"
        }
      ],
      "name": "ApprovalForAll",
      "type": "event"
    },
    {
      "anonymous": false,
      "inputs": [
        {
          "indexed": true,
          "internalType": "address",
          "name": "previousOwner",
          "type": "address"
        },
        {
          "indexed": true,
          "internalType": "address",
          "name": "newOwner",
          "type": "address"
        }
      ],
      "name": "OwnershipTransferred",
      "type": "event"
    },
    {
      "anonymous": false,
      "inputs": [
        {
          "indexed": true,
          "internalType": "address",
          "name": "operator",
          "type": "address"
        },
        {
          "indexed": true,
          "internalType": "address",
          "name": "from",
          "type": "address"
        },
        {
          "indexed": true,
          "internalType": "address",
          "name": "to",
          "type": "address"
        },
        {
          "indexed": false,
          "internalType": "uint256[]",
          "name": "ids",
          "type": "uint256[]"
        },
        {
          "indexed": false,
          "internalType": "uint256[]",
          "name": "values",
          "type": "uint256[]"
        }
      ],
      "name": "TransferBatch",
      "type": "event"
    },
    {
      "anonymous": false,
      "inputs": [
        {
          "indexed": true,
          "internalType": "address",
          "name": "operator",
          "type": "address"
        },
        {
          "indexed": true,
          "internalType": "address",
          "name": "from",
          "type": "address"
        },
        {
          "indexed": true,
          "internalType": "address",
          "name": "to",
          "type": "address"
        },
        {
          "indexed": false,
          "internalType": "uint256",
          "name": "id",
          "type": "uint256"
        },
        {
          "indexed": false,
          "internalType": "uint256",
          "name": "value",
          "type": "uint256"
        }
      ],
      "name": "TransferSingle",
      "type": "event"
    },
    {
      "anonymous": false,
      "inputs": [
        {
          "indexed": false,
          "internalType": "string",
          "name": "value",
          "type": "string"
        },
        {
          "indexed": true,
          "internalType": "uint256",
          "name": "id",
          "type": "uint256"
        }
      ],
      "name": "URI",
      "type": "event"
    },
    {
      "inputs": [
        {
          "internalType": "address",
          "name": "account",
          "type": "address"
        },
        {
          "internalType": "uint256",
          "name": "id",
          "type": "uint256"
        }
      ],
      "name": "balanceOf",
      "outputs": [
        {
          "internalType": "uint256",
          "name": "",
          "type": "uint256"
        }
      ],
      "stateMutability": "view",
      "type": "function"
    },
    {
      "inputs": [
        {
          "internalType": "address[]",
          "name": "accounts",
          "type": "address[]"
        },
        {
          "internalType": "uint256[]",
          "name": "ids",
          "type": "uint256[]"
        }
      ],
      "name": "balanceOfBatch",
      "outputs": [
        {
          "internalType": "uint256[]",
          "name": "",
          "type": "uint256[]"
        }
      ],
      "stateMutability": "view",
      "type": "function"
    },
    {
      "inputs": [
        {
          "internalType": "address",
          "name": "account",
          "type": "address"
        },
        {
          "internalType": "uint256",
          "name": "id",
          "type": "uint256"
        },
        {
          "internalType": "uint256",
          "name": "value",
          "type": "uint256"
        }
      ],
      "name": "burn",
      "outputs": [],
      "stateMutability": "nonpayable",
      "type": "function"
    },
    {
      "inputs": [
        {
          "internalType": "address",
          "name": "account",
          "type": "address"
        },
        {
          "internalType": "uint256[]",
          "name": "ids",
          "type": "uint256[]"
        },
        {
          "internalType": "uint256[]",
          "name": "values",
          "type": "uint256[]"
        }
      ],
      "name": "burnBatch",
      "outputs": [],
      "stateMutability": "nonpayable",
      "type": "function"
    },
    {
      "inputs": [
        {
          "internalType": "address",
          "name": "account",
          "type": "address"
        },
        {
          "internalType": "address",
          "name": "operator",
          "type": "address"
        }
      ],
      "name": "isApprovedForAll",
      "outputs": [
        {
          "internalType": "bool",
          "name": "",
          "type": "bool"
        }
      ],
      "stateMutability": "view",
      "type": "function"
    },
    {
      "inputs": [],
      "name": "owner",
      "outputs": [
        {
          "internalType": "address",
          "name": "",
          "type": "address"
        }
      ],
      "stateMutability": "view",
      "type": "function"
    },
    {
      "inputs": [],
      "name": "renounceOwnership",
      "outputs": [],
      "stateMutability": "nonpayable",
      "type": "function"
    },
    {
      "inputs": [
        {
          "internalType": "address",
          "name": "from",
          "type": "address"
        },
        {
          "internalType": "address",
          "name": "to",
          "type": "address"
        },
        {
          "internalType": "uint256[]",
          "name": "ids",
          "type": "uint256[]"
        },
        {
          "internalType": "uint256[]",
          "name": "amounts",
          "type": "uint256[]"
        },
        {
          "internalType": "bytes",
          "name": "data",
          "type": "bytes"
        }
      ],
      "name": "safeBatchTransferFrom",
      "outputs": [],
      "stateMutability": "nonpayable",
      "type": "function"
    },
    {
      "inputs": [
        {
          "internalType": "address",
          "name": "from",
          "type": "address"
        },
        {
          "internalType": "address",
          "name": "to",
          "type": "address"
        },
        {
          "internalType": "uint256",
          "name": "id",
          "type": "uint256"
        },
        {
          "internalType": "uint256",
          "name": "amount",
          "type": "uint256"
        },
        {
          "internalType": "bytes",
          "name": "data",
          "type": "bytes"
        }
      ],
      "name": "safeTransferFrom",
      "outputs": [],
      "stateMutability": "nonpayable",
      "type": "function"
    },
    {
      "inputs": [
        {
          "internalType": "address",
          "name": "operator",
          "type": "address"
        },
        {
          "internalType": "bool",
          "name": "approved",
          "type": "bool"
        }
      ],
      "name": "setApprovalForAll",
      "outputs": [],
      "stateMutability": "nonpayable",
      "type": "function"
    },
    {
      "inputs": [
        {
          "internalType": "string",
          "name": "url",
          "type": "string"
        }
      ],
      "name": "setURI",
      "outputs": [],
      "stateMutability": "nonpayable",
      "type": "function"
    },
    {
      "inputs": [
        {
          "internalType": "bytes4",
          "name": "interfaceId",
          "type": "bytes4"
        }
      ],
      "name": "supportsInterface",
      "outputs": [
        {
          "internalType": "bool",
          "name": "",
          "type": "bool"
        }
      ],
      "stateMutability": "view",
      "type": "function"
    },
    {
      "inputs": [
        {
          "internalType": "address",
          "name": "newOwner",
          "type": "address"
        }
      ],
      "name": "transferOwnership",
      "outputs": [],
      "stateMutability": "nonpayable",
      "type": "function"
    },
    {
      "inputs": [
        {
          "internalType": "uint256",
          "name": "tokenId",
          "type": "uint256"
        }
      ],
      "name": "uri",
      "outputs": [
        {
          "internalType": "string",
          "name": "",
          "type": "string"
        }
      ],
      "stateMutability": "view",
      "type": "function"
    }
  ],
  "bytecode": "0x60806040523480156200001157600080fd5b50604051620048ad380380620048ad8339818101604052810190620000379190620008c4565b816200004981620000f960201b60201c565b506200006a6200005e6200011560201b60201c565b6200011d60201b60201c565b60008082519050600091505b80821015620000ef57620000e33383858581518110620000bf577f4e487b7100000000000000000000000000000000000000000000000000000000600052603260045260246000fd5b602002602001015160405180602001604052806000815250620001e360201b60201c565b81600101915062000076565b505050506200102d565b806002908051906020019062000111929190620006a6565b5050565b600033905090565b6000600360009054906101000a900473ffffffffffffffffffffffffffffffffffffffff16905081600360006101000a81548173ffffffffffffffffffffffffffffffffffffffff021916908373ffffffffffffffffffffffffffffffffffffffff1602179055508173ffffffffffffffffffffffffffffffffffffffff168173ffffffffffffffffffffffffffffffffffffffff167f8be0079c531659141344cd1fd0a4f28419497f9722a3daafe3b4186f6b6457e060405160405180910390a35050565b600073ffffffffffffffffffffffffffffffffffffffff168473ffffffffffffffffffffffffffffffffffffffff16141562000256576040517f08c379a00000000000000000000000000000000000000000000000000000000081526004016200024d9062000b1c565b60405180910390fd5b6000620002686200011560201b60201c565b9050620002a1816000876200028388620003a860201b60201c565b6200029488620003a860201b60201c565b876200047160201b60201c565b8260008086815260200190815260200160002060008773ffffffffffffffffffffffffffffffffffffffff1673ffffffffffffffffffffffffffffffffffffffff168152602001908152602001600020600082825462000302919062000c31565b925050819055508473ffffffffffffffffffffffffffffffffffffffff16600073ffffffffffffffffffffffffffffffffffffffff168273ffffffffffffffffffffffffffffffffffffffff167fc3d58168c5ae7397731d063d5bbf3d657854427343f4c083240f7aacaa2d0f6287876040516200038292919062000b3e565b60405180910390a4620003a1816000878787876200047960201b60201c565b5050505050565b60606000600167ffffffffffffffff811115620003ee577f4e487b7100000000000000000000000000000000000000000000000000000000600052604160045260246000fd5b6040519080825280602002602001820160405280156200041d5781602001602082028036833780820191505090505b50905082816000815181106200045c577f4e487b7100000000000000000000000000000000000000000000000000000000600052603260045260246000fd5b60200260200101818152505080915050919050565b505050505050565b620004a58473ffffffffffffffffffffffffffffffffffffffff166200068360201b62000bb91760201c565b156200067b578373ffffffffffffffffffffffffffffffffffffffff1663f23a6e6187878686866040518663ffffffff1660e01b8152600401620004ee95949392919062000a50565b602060405180830381600087803b1580156200050957600080fd5b505af19250505080156200053d57506040513d601f19601f820116820180604052508101906200053a919062000898565b60015b620005ef576200054c62000e27565b806308c379a01415620005b057506200056462000f57565b80620005715750620005b2565b806040517f08c379a0000000000000000000000000000000000000000000000000000000008152600401620005a7919062000ab4565b60405180910390fd5b505b6040517f08c379a0000000000000000000000000000000000000000000000000000000008152600401620005e69062000ad8565b60405180910390fd5b63f23a6e6160e01b7bffffffffffffffffffffffffffffffffffffffffffffffffffffffff1916817bffffffffffffffffffffffffffffffffffffffffffffffffffffffff19161462000679576040517f08c379a0000000000000000000000000000000000000000000000000000000008152600401620006709062000afa565b60405180910390fd5b505b505050505050565b6000808273ffffffffffffffffffffffffffffffffffffffff163b119050919050565b828054620006b49062000d2e565b90600052602060002090601f016020900481019282620006d8576000855562000724565b82601f10620006f357805160ff191683800117855562000724565b8280016001018555821562000724579182015b828111156200072357825182559160200191906001019062000706565b5b50905062000733919062000737565b5090565b5b808211156200075257600081600090555060010162000738565b5090565b60006200076d620007678462000b94565b62000b6b565b905080838252602082019050828560208602820111156200078d57600080fd5b60005b85811015620007c15781620007a6888262000881565b84526020840193506020830192505060018101905062000790565b5050509392505050565b6000620007e2620007dc8462000bc3565b62000b6b565b905082815260208101848484011115620007fb57600080fd5b6200080884828562000cf8565b509392505050565b600082601f8301126200082257600080fd5b81516200083484826020860162000756565b91505092915050565b6000815190506200084e8162000ff9565b92915050565b600082601f8301126200086657600080fd5b815162000878848260208601620007cb565b91505092915050565b600081519050620008928162001013565b92915050565b600060208284031215620008ab57600080fd5b6000620008bb848285016200083d565b91505092915050565b60008060408385031215620008d857600080fd5b600083015167ffffffffffffffff811115620008f357600080fd5b620009018582860162000854565b925050602083015167ffffffffffffffff8111156200091f57600080fd5b6200092d8582860162000810565b9150509250929050565b620009428162000c8e565b82525050565b6000620009558262000bf9565b62000961818562000c0f565b93506200097381856020860162000cf8565b6200097e8162000e4c565b840191505092915050565b6000620009968262000c04565b620009a2818562000c20565b9350620009b481856020860162000cf8565b620009bf8162000e4c565b840191505092915050565b6000620009d960348362000c20565b9150620009e68262000e6a565b604082019050919050565b600062000a0060288362000c20565b915062000a0d8262000eb9565b604082019050919050565b600062000a2760218362000c20565b915062000a348262000f08565b604082019050919050565b62000a4a8162000cee565b82525050565b600060a08201905062000a67600083018862000937565b62000a76602083018762000937565b62000a85604083018662000a3f565b62000a94606083018562000a3f565b818103608083015262000aa8818462000948565b90509695505050505050565b6000602082019050818103600083015262000ad0818462000989565b905092915050565b6000602082019050818103600083015262000af381620009ca565b9050919050565b6000602082019050818103600083015262000b1581620009f1565b9050919050565b6000602082019050818103600083015262000b378162000a18565b9050919050565b600060408201905062000b55600083018562000a3f565b62000b64602083018462000a3f565b9392505050565b600062000b7762000b8a565b905062000b85828262000d64565b919050565b6000604051905090565b600067ffffffffffffffff82111562000bb25762000bb162000df8565b5b602082029050602081019050919050565b600067ffffffffffffffff82111562000be15762000be062000df8565b5b62000bec8262000e4c565b9050602081019050919050565b600081519050919050565b600081519050919050565b600082825260208201905092915050565b600082825260208201905092915050565b600062000c3e8262000cee565b915062000c4b8362000cee565b9250827fffffffffffffffffffffffffffffffffffffffffffffffffffffffffffffffff0382111562000c835762000c8262000d9a565b5b828201905092915050565b600062000c9b8262000cce565b9050919050565b60007fffffffff0000000000000000000000000000000000000000000000000000000082169050919050565b600073ffffffffffffffffffffffffffffffffffffffff82169050919050565b6000819050919050565b60005b8381101562000d1857808201518184015260208101905062000cfb565b8381111562000d28576000848401525b50505050565b6000600282049050600182168062000d4757607f821691505b6020821081141562000d5e5762000d5d62000dc9565b5b50919050565b62000d6f8262000e4c565b810181811067ffffffffffffffff8211171562000d915762000d9062000df8565b5b80604052505050565b7f4e487b7100000000000000000000000000000000000000000000000000000000600052601160045260246000fd5b7f4e487b7100000000000000000000000000000000000000000000000000000000600052602260045260246000fd5b7f4e487b7100000000000000000000000000000000000000000000000000000000600052604160045260246000fd5b600060033d111562000e495760046000803e62000e4660005162000e5d565b90505b90565b6000601f19601f8301169050919050565b60008160e01c9050919050565b7f455243313135353a207472616e7366657220746f206e6f6e204552433131353560008201527f526563656976657220696d706c656d656e746572000000000000000000000000602082015250565b7f455243313135353a204552433131353552656365697665722072656a6563746560008201527f6420746f6b656e73000000000000000000000000000000000000000000000000602082015250565b7f455243313135353a206d696e7420746f20746865207a65726f2061646472657360008201527f7300000000000000000000000000000000000000000000000000000000000000602082015250565b600060443d101562000f695762000ff6565b62000f7362000b8a565b60043d036004823e80513d602482011167ffffffffffffffff8211171562000f9d57505062000ff6565b808201805167ffffffffffffffff81111562000fbd575050505062000ff6565b80602083010160043d03850181111562000fdc57505050505062000ff6565b62000fed8260200185018662000d64565b82955050505050505b90565b620010048162000ca2565b81146200101057600080fd5b50565b6200101e8162000cee565b81146200102a57600080fd5b50565b613870806200103d6000396000f3fe608060405234801561001057600080fd5b50600436106100e95760003560e01c8063715018a61161008c578063e985e9c511610066578063e985e9c514610246578063f242432a14610276578063f2fde38b14610292578063f5298aca146102ae576100e9565b8063715018a6146102025780638da5cb5b1461020c578063a22cb4651461022a576100e9565b80630e89341c116100c85780630e89341c1461016a5780632eb2c2d61461019a5780634e1273f4146101b65780636b20c454146101e6576100e9565b8062fdd58e146100ee57806301ffc9a71461011e57806302fe53051461014e575b600080fd5b610108600480360381019061010391906125ea565b6102ca565b6040516101159190612e33565b60405180910390f35b610138600480360381019061013391906126e1565b610393565b6040516101459190612c36565b60405180910390f35b61016860048036038101906101639190612733565b610475565b005b610184600480360381019061017f9190612774565b6104fd565b6040516101919190612c51565b60405180910390f35b6101b460048036038101906101af91906123e1565b610538565b005b6101d060048036038101906101cb9190612675565b6105d9565b6040516101dd9190612bdd565b60405180910390f35b61020060048036038101906101fb919061252f565b61078a565b005b61020a610827565b005b6102146108af565b6040516102219190612b00565b60405180910390f35b610244600480360381019061023f91906125ae565b6108d9565b005b610260600480360381019061025b91906123a5565b6108ef565b60405161026d9190612c36565b60405180910390f35b610290600480360381019061028b91906124a0565b610983565b005b6102ac60048036038101906102a7919061237c565b610a24565b005b6102c860048036038101906102c39190612626565b610b1c565b005b60008073ffffffffffffffffffffffffffffffffffffffff168373ffffffffffffffffffffffffffffffffffffffff16141561033b576040517f08c379a000000000000000000000000000000000000000000000000000000000815260040161033290612cb3565b60405180910390fd5b60008083815260200190815260200160002060008473ffffffffffffffffffffffffffffffffffffffff1673ffffffffffffffffffffffffffffffffffffffff16815260200190815260200160002054905092915050565b60007fd9b67a26000000000000000000000000000000000000000000000000000000007bffffffffffffffffffffffffffffffffffffffffffffffffffffffff1916827bffffffffffffffffffffffffffffffffffffffffffffffffffffffff1916148061045e57507f0e89341c000000000000000000000000000000000000000000000000000000007bffffffffffffffffffffffffffffffffffffffffffffffffffffffff1916827bffffffffffffffffffffffffffffffffffffffffffffffffffffffff1916145b8061046e575061046d82610bdc565b5b9050919050565b61047d610c46565b73ffffffffffffffffffffffffffffffffffffffff1661049b6108af565b73ffffffffffffffffffffffffffffffffffffffff16146104f1576040517f08c379a00000000000000000000000000000000000000000000000000000000081526004016104e890612db3565b60405180910390fd5b6104fa81610c4e565b50565b606061050882610c68565b61051183610cfc565b604051602001610522929190612adc565b6040516020818303038152906040529050919050565b610540610c46565b73ffffffffffffffffffffffffffffffffffffffff168573ffffffffffffffffffffffffffffffffffffffff161480610586575061058585610580610c46565b6108ef565b5b6105c5576040517f08c379a00000000000000000000000000000000000000000000000000000000081526004016105bc90612d53565b60405180910390fd5b6105d28585858585610ea9565b5050505050565b6060815183511461061f576040517f08c379a000000000000000000000000000000000000000000000000000000000815260040161061690612df3565b60405180910390fd5b6000835167ffffffffffffffff811115610662577f4e487b7100000000000000000000000000000000000000000000000000000000600052604160045260246000fd5b6040519080825280602002602001820160405280156106905781602001602082028036833780820191505090505b50905060005b845181101561077f576107298582815181106106db577f4e487b7100000000000000000000000000000000000000000000000000000000600052603260045260246000fd5b602002602001015185838151811061071c577f4e487b7100000000000000000000000000000000000000000000000000000000600052603260045260246000fd5b60200260200101516102ca565b828281518110610762577f4e487b7100000000000000000000000000000000000000000000000000000000600052603260045260246000fd5b60200260200101818152505080610778906131a6565b9050610696565b508091505092915050565b610792610c46565b73ffffffffffffffffffffffffffffffffffffffff168373ffffffffffffffffffffffffffffffffffffffff1614806107d857506107d7836107d2610c46565b6108ef565b5b610817576040517f08c379a000000000000000000000000000000000000000000000000000000000815260040161080e90612d13565b60405180910390fd5b610822838383611209565b505050565b61082f610c46565b73ffffffffffffffffffffffffffffffffffffffff1661084d6108af565b73ffffffffffffffffffffffffffffffffffffffff16146108a3576040517f08c379a000000000000000000000000000000000000000000000000000000000815260040161089a90612db3565b60405180910390fd5b6108ad6000611506565b565b6000600360009054906101000a900473ffffffffffffffffffffffffffffffffffffffff16905090565b6108eb6108e4610c46565b83836115cc565b5050565b6000600160008473ffffffffffffffffffffffffffffffffffffffff1673ffffffffffffffffffffffffffffffffffffffff16815260200190815260200160002060008373ffffffffffffffffffffffffffffffffffffffff1673ffffffffffffffffffffffffffffffffffffffff16815260200190815260200160002060009054906101000a900460ff16905092915050565b61098b610c46565b73ffffffffffffffffffffffffffffffffffffffff168573ffffffffffffffffffffffffffffffffffffffff1614806109d157506109d0856109cb610c46565b6108ef565b5b610a10576040517f08c379a0000000000000000000000000000000000000000000000000000000008152600401610a0790612d13565b60405180910390fd5b610a1d8585858585611739565b5050505050565b610a2c610c46565b73ffffffffffffffffffffffffffffffffffffffff16610a4a6108af565b73ffffffffffffffffffffffffffffffffffffffff1614610aa0576040517f08c379a0000000000000000000000000000000000000000000000000000000008152600401610a9790612db3565b60405180910390fd5b600073ffffffffffffffffffffffffffffffffffffffff168173ffffffffffffffffffffffffffffffffffffffff161415610b10576040517f08c379a0000000000000000000000000000000000000000000000000000000008152600401610b0790612cd3565b60405180910390fd5b610b1981611506565b50565b610b24610c46565b73ffffffffffffffffffffffffffffffffffffffff168373ffffffffffffffffffffffffffffffffffffffff161480610b6a5750610b6983610b64610c46565b6108ef565b5b610ba9576040517f08c379a0000000000000000000000000000000000000000000000000000000008152600401610ba090612d13565b60405180910390fd5b610bb48383836119bb565b505050565b6000808273ffffffffffffffffffffffffffffffffffffffff163b119050919050565b60007f01ffc9a7000000000000000000000000000000000000000000000000000000007bffffffffffffffffffffffffffffffffffffffffffffffffffffffff1916827bffffffffffffffffffffffffffffffffffffffffffffffffffffffff1916149050919050565b600033905090565b8060029080519060200190610c64929190612074565b5050565b606060028054610c7790613143565b80601f0160208091040260200160405190810160405280929190818152602001828054610ca390613143565b8015610cf05780601f10610cc557610100808354040283529160200191610cf0565b820191906000526020600020905b815481529060010190602001808311610cd357829003601f168201915b50505050509050919050565b60606000821415610d44576040518060400160405280600181526020017f30000000000000000000000000000000000000000000000000000000000000008152509050610ea4565b600082905060005b60008214610d76578080610d5f906131a6565b915050600a82610d6f9190613028565b9150610d4c565b60008167ffffffffffffffff811115610db8577f4e487b7100000000000000000000000000000000000000000000000000000000600052604160045260246000fd5b6040519080825280601f01601f191660200182016040528015610dea5781602001600182028036833780820191505090505b5090505b60008514610e9d57600182610e039190613059565b9150600a85610e1291906131ef565b6030610e1e9190612fd2565b60f81b818381518110610e5a577f4e487b7100000000000000000000000000000000000000000000000000000000600052603260045260246000fd5b60200101907effffffffffffffffffffffffffffffffffffffffffffffffffffffffffffff1916908160001a905350600a85610e969190613028565b9450610dee565b8093505050505b919050565b8151835114610eed576040517f08c379a0000000000000000000000000000000000000000000000000000000008152600401610ee490612e13565b60405180910390fd5b600073ffffffffffffffffffffffffffffffffffffffff168473ffffffffffffffffffffffffffffffffffffffff161415610f5d576040517f08c379a0000000000000000000000000000000000000000000000000000000008152600401610f5490612d33565b60405180910390fd5b6000610f67610c46565b9050610f77818787878787611bd8565b60005b8451811015611174576000858281518110610fbe577f4e487b7100000000000000000000000000000000000000000000000000000000600052603260045260246000fd5b602002602001015190506000858381518110611003577f4e487b7100000000000000000000000000000000000000000000000000000000600052603260045260246000fd5b60200260200101519050600080600084815260200190815260200160002060008b73ffffffffffffffffffffffffffffffffffffffff1673ffffffffffffffffffffffffffffffffffffffff168152602001908152602001600020549050818110156110a4576040517f08c379a000000000000000000000000000000000000000000000000000000000815260040161109b90612d93565b60405180910390fd5b81810360008085815260200190815260200160002060008c73ffffffffffffffffffffffffffffffffffffffff1673ffffffffffffffffffffffffffffffffffffffff168152602001908152602001600020819055508160008085815260200190815260200160002060008b73ffffffffffffffffffffffffffffffffffffffff1673ffffffffffffffffffffffffffffffffffffffff16815260200190815260200160002060008282546111599190612fd2565b925050819055505050508061116d906131a6565b9050610f7a565b508473ffffffffffffffffffffffffffffffffffffffff168673ffffffffffffffffffffffffffffffffffffffff168273ffffffffffffffffffffffffffffffffffffffff167f4a39dc06d4c0dbc64b70af90fd698a233a518aa5d07e595d983b8c0526c8f7fb87876040516111eb929190612bff565b60405180910390a4611201818787878787611be0565b505050505050565b600073ffffffffffffffffffffffffffffffffffffffff168373ffffffffffffffffffffffffffffffffffffffff161415611279576040517f08c379a000000000000000000000000000000000000000000000000000000000815260040161127090612d73565b60405180910390fd5b80518251146112bd576040517f08c379a00000000000000000000000000000000000000000000000000000000081526004016112b490612e13565b60405180910390fd5b60006112c7610c46565b90506112e781856000868660405180602001604052806000815250611bd8565b60005b835181101561148057600084828151811061132e577f4e487b7100000000000000000000000000000000000000000000000000000000600052603260045260246000fd5b602002602001015190506000848381518110611373577f4e487b7100000000000000000000000000000000000000000000000000000000600052603260045260246000fd5b60200260200101519050600080600084815260200190815260200160002060008973ffffffffffffffffffffffffffffffffffffffff1673ffffffffffffffffffffffffffffffffffffffff16815260200190815260200160002054905081811015611414576040517f08c379a000000000000000000000000000000000000000000000000000000000815260040161140b90612cf3565b60405180910390fd5b81810360008085815260200190815260200160002060008a73ffffffffffffffffffffffffffffffffffffffff1673ffffffffffffffffffffffffffffffffffffffff168152602001908152602001600020819055505050508080611478906131a6565b9150506112ea565b50600073ffffffffffffffffffffffffffffffffffffffff168473ffffffffffffffffffffffffffffffffffffffff168273ffffffffffffffffffffffffffffffffffffffff167f4a39dc06d4c0dbc64b70af90fd698a233a518aa5d07e595d983b8c0526c8f7fb86866040516114f8929190612bff565b60405180910390a450505050565b6000600360009054906101000a900473ffffffffffffffffffffffffffffffffffffffff16905081600360006101000a81548173ffffffffffffffffffffffffffffffffffffffff021916908373ffffffffffffffffffffffffffffffffffffffff1602179055508173ffffffffffffffffffffffffffffffffffffffff168173ffffffffffffffffffffffffffffffffffffffff167f8be0079c531659141344cd1fd0a4f28419497f9722a3daafe3b4186f6b6457e060405160405180910390a35050565b8173ffffffffffffffffffffffffffffffffffffffff168373ffffffffffffffffffffffffffffffffffffffff16141561163b576040517f08c379a000000000000000000000000000000000000000000000000000000000815260040161163290612dd3565b60405180910390fd5b80600160008573ffffffffffffffffffffffffffffffffffffffff1673ffffffffffffffffffffffffffffffffffffffff16815260200190815260200160002060008473ffffffffffffffffffffffffffffffffffffffff1673ffffffffffffffffffffffffffffffffffffffff16815260200190815260200160002060006101000a81548160ff0219169083151502179055508173ffffffffffffffffffffffffffffffffffffffff168373ffffffffffffffffffffffffffffffffffffffff167f17307eab39ab6107e8899845ad3d59bd9653f200f220920489ca2b5937696c318360405161172c9190612c36565b60405180910390a3505050565b600073ffffffffffffffffffffffffffffffffffffffff168473ffffffffffffffffffffffffffffffffffffffff1614156117a9576040517f08c379a00000000000000000000000000000000000000000000000000000000081526004016117a090612d33565b60405180910390fd5b60006117b3610c46565b90506117d38187876117c488611dc7565b6117cd88611dc7565b87611bd8565b600080600086815260200190815260200160002060008873ffffffffffffffffffffffffffffffffffffffff1673ffffffffffffffffffffffffffffffffffffffff1681526020019081526020016000205490508381101561186a576040517f08c379a000000000000000000000000000000000000000000000000000000000815260040161186190612d93565b60405180910390fd5b83810360008087815260200190815260200160002060008973ffffffffffffffffffffffffffffffffffffffff1673ffffffffffffffffffffffffffffffffffffffff168152602001908152602001600020819055508360008087815260200190815260200160002060008873ffffffffffffffffffffffffffffffffffffffff1673ffffffffffffffffffffffffffffffffffffffff168152602001908152602001600020600082825461191f9190612fd2565b925050819055508573ffffffffffffffffffffffffffffffffffffffff168773ffffffffffffffffffffffffffffffffffffffff168373ffffffffffffffffffffffffffffffffffffffff167fc3d58168c5ae7397731d063d5bbf3d657854427343f4c083240f7aacaa2d0f62888860405161199c929190612e4e565b60405180910390a46119b2828888888888611e8d565b50505050505050565b600073ffffffffffffffffffffffffffffffffffffffff168373ffffffffffffffffffffffffffffffffffffffff161415611a2b576040517f08c379a0000000000000000000000000000000000000000000000000000000008152600401611a2290612d73565b60405180910390fd5b6000611a35610c46565b9050611a6581856000611a4787611dc7565b611a5087611dc7565b60405180602001604052806000815250611bd8565b600080600085815260200190815260200160002060008673ffffffffffffffffffffffffffffffffffffffff1673ffffffffffffffffffffffffffffffffffffffff16815260200190815260200160002054905082811015611afc576040517f08c379a0000000000000000000000000000000000000000000000000000000008152600401611af390612cf3565b60405180910390fd5b82810360008086815260200190815260200160002060008773ffffffffffffffffffffffffffffffffffffffff1673ffffffffffffffffffffffffffffffffffffffff16815260200190815260200160002081905550600073ffffffffffffffffffffffffffffffffffffffff168573ffffffffffffffffffffffffffffffffffffffff168373ffffffffffffffffffffffffffffffffffffffff167fc3d58168c5ae7397731d063d5bbf3d657854427343f4c083240f7aacaa2d0f628787604051611bc9929190612e4e565b60405180910390a45050505050565b505050505050565b611bff8473ffffffffffffffffffffffffffffffffffffffff16610bb9565b15611dbf578373ffffffffffffffffffffffffffffffffffffffff1663bc197c8187878686866040518663ffffffff1660e01b8152600401611c45959493929190612b1b565b602060405180830381600087803b158015611c5f57600080fd5b505af1925050508015611c9057506040513d601f19601f82011682018060405250810190611c8d919061270a565b60015b611d3657611c9c6132dc565b806308c379a01415611cf95750611cb1613748565b80611cbc5750611cfb565b806040517f08c379a0000000000000000000000000000000000000000000000000000000008152600401611cf09190612c51565b60405180910390fd5b505b6040517f08c379a0000000000000000000000000000000000000000000000000000000008152600401611d2d90612c73565b60405180910390fd5b63bc197c8160e01b7bffffffffffffffffffffffffffffffffffffffffffffffffffffffff1916817bffffffffffffffffffffffffffffffffffffffffffffffffffffffff191614611dbd576040517f08c379a0000000000000000000000000000000000000000000000000000000008152600401611db490612c93565b60405180910390fd5b505b505050505050565b60606000600167ffffffffffffffff811115611e0c577f4e487b7100000000000000000000000000000000000000000000000000000000600052604160045260246000fd5b604051908082528060200260200182016040528015611e3a5781602001602082028036833780820191505090505b5090508281600081518110611e78577f4e487b7100000000000000000000000000000000000000000000000000000000600052603260045260246000fd5b60200260200101818152505080915050919050565b611eac8473ffffffffffffffffffffffffffffffffffffffff16610bb9565b1561206c578373ffffffffffffffffffffffffffffffffffffffff1663f23a6e6187878686866040518663ffffffff1660e01b8152600401611ef2959493929190612b83565b602060405180830381600087803b158015611f0c57600080fd5b505af1925050508015611f3d57506040513d601f19601f82011682018060405250810190611f3a919061270a565b60015b611fe357611f496132dc565b806308c379a01415611fa65750611f5e613748565b80611f695750611fa8565b806040517f08c379a0000000000000000000000000000000000000000000000000000000008152600401611f9d9190612c51565b60405180910390fd5b505b6040517f08c379a0000000000000000000000000000000000000000000000000000000008152600401611fda90612c73565b60405180910390fd5b63f23a6e6160e01b7bffffffffffffffffffffffffffffffffffffffffffffffffffffffff1916817bffffffffffffffffffffffffffffffffffffffffffffffffffffffff19161461206a576040517f08c379a000000000000000000000000000000000000000000000000000000000815260040161206190612c93565b60405180910390fd5b505b505050505050565b82805461208090613143565b90600052602060002090601f0160209004810192826120a257600085556120e9565b82601f106120bb57805160ff19168380011785556120e9565b828001600101855582156120e9579182015b828111156120e85782518255916020019190600101906120cd565b5b5090506120f691906120fa565b5090565b5b808211156121135760008160009055506001016120fb565b5090565b600061212a61212584612e9c565b612e77565b9050808382526020820190508285602086028201111561214957600080fd5b60005b85811015612179578161215f888261226b565b84526020840193506020830192505060018101905061214c565b5050509392505050565b600061219661219184612ec8565b612e77565b905080838252602082019050828560208602820111156121b557600080fd5b60005b858110156121e557816121cb8882612367565b8452602084019350602083019250506001810190506121b8565b5050509392505050565b60006122026121fd84612ef4565b612e77565b90508281526020810184848401111561221a57600080fd5b612225848285613101565b509392505050565b600061224061223b84612f25565b612e77565b90508281526020810184848401111561225857600080fd5b612263848285613101565b509392505050565b60008135905061227a816137de565b92915050565b600082601f83011261229157600080fd5b81356122a1848260208601612117565b91505092915050565b600082601f8301126122bb57600080fd5b81356122cb848260208601612183565b91505092915050565b6000813590506122e3816137f5565b92915050565b6000813590506122f88161380c565b92915050565b60008151905061230d8161380c565b92915050565b600082601f83011261232457600080fd5b81356123348482602086016121ef565b91505092915050565b600082601f83011261234e57600080fd5b813561235e84826020860161222d565b91505092915050565b60008135905061237681613823565b92915050565b60006020828403121561238e57600080fd5b600061239c8482850161226b565b91505092915050565b600080604083850312156123b857600080fd5b60006123c68582860161226b565b92505060206123d78582860161226b565b9150509250929050565b600080600080600060a086880312156123f957600080fd5b60006124078882890161226b565b95505060206124188882890161226b565b945050604086013567ffffffffffffffff81111561243557600080fd5b612441888289016122aa565b935050606086013567ffffffffffffffff81111561245e57600080fd5b61246a888289016122aa565b925050608086013567ffffffffffffffff81111561248757600080fd5b61249388828901612313565b9150509295509295909350565b600080600080600060a086880312156124b857600080fd5b60006124c68882890161226b565b95505060206124d78882890161226b565b94505060406124e888828901612367565b93505060606124f988828901612367565b925050608086013567ffffffffffffffff81111561251657600080fd5b61252288828901612313565b9150509295509295909350565b60008060006060848603121561254457600080fd5b60006125528682870161226b565b935050602084013567ffffffffffffffff81111561256f57600080fd5b61257b868287016122aa565b925050604084013567ffffffffffffffff81111561259857600080fd5b6125a4868287016122aa565b9150509250925092565b600080604083850312156125c157600080fd5b60006125cf8582860161226b565b92505060206125e0858286016122d4565b9150509250929050565b600080604083850312156125fd57600080fd5b600061260b8582860161226b565b925050602061261c85828601612367565b9150509250929050565b60008060006060848603121561263b57600080fd5b60006126498682870161226b565b935050602061265a86828701612367565b925050604061266b86828701612367565b9150509250925092565b6000806040838503121561268857600080fd5b600083013567ffffffffffffffff8111156126a257600080fd5b6126ae85828601612280565b925050602083013567ffffffffffffffff8111156126cb57600080fd5b6126d7858286016122aa565b9150509250929050565b6000602082840312156126f357600080fd5b6000612701848285016122e9565b91505092915050565b60006020828403121561271c57600080fd5b600061272a848285016122fe565b91505092915050565b60006020828403121561274557600080fd5b600082013567ffffffffffffffff81111561275f57600080fd5b61276b8482850161233d565b91505092915050565b60006020828403121561278657600080fd5b600061279484828501612367565b91505092915050565b60006127a98383612abe565b60208301905092915050565b6127be8161308d565b82525050565b60006127cf82612f66565b6127d98185612f94565b93506127e483612f56565b8060005b838110156128155781516127fc888261279d565b975061280783612f87565b9250506001810190506127e8565b5085935050505092915050565b61282b8161309f565b82525050565b600061283c82612f71565b6128468185612fa5565b9350612856818560208601613110565b61285f816132fe565b840191505092915050565b600061287582612f7c565b61287f8185612fb6565b935061288f818560208601613110565b612898816132fe565b840191505092915050565b60006128ae82612f7c565b6128b88185612fc7565b93506128c8818560208601613110565b80840191505092915050565b60006128e1603483612fb6565b91506128ec8261331c565b604082019050919050565b6000612904602883612fb6565b915061290f8261336b565b604082019050919050565b6000612927602b83612fb6565b9150612932826133ba565b604082019050919050565b600061294a602683612fb6565b915061295582613409565b604082019050919050565b600061296d602483612fb6565b915061297882613458565b604082019050919050565b6000612990602983612fb6565b915061299b826134a7565b604082019050919050565b60006129b3602583612fb6565b91506129be826134f6565b604082019050919050565b60006129d6603283612fb6565b91506129e182613545565b604082019050919050565b60006129f9602383612fb6565b9150612a0482613594565b604082019050919050565b6000612a1c602a83612fb6565b9150612a27826135e3565b604082019050919050565b6000612a3f602083612fb6565b9150612a4a82613632565b602082019050919050565b6000612a62602983612fb6565b9150612a6d8261365b565b604082019050919050565b6000612a85602983612fb6565b9150612a90826136aa565b604082019050919050565b6000612aa8602883612fb6565b9150612ab3826136f9565b604082019050919050565b612ac7816130f7565b82525050565b612ad6816130f7565b82525050565b6000612ae882856128a3565b9150612af482846128a3565b91508190509392505050565b6000602082019050612b1560008301846127b5565b92915050565b600060a082019050612b3060008301886127b5565b612b3d60208301876127b5565b8181036040830152612b4f81866127c4565b90508181036060830152612b6381856127c4565b90508181036080830152612b778184612831565b90509695505050505050565b600060a082019050612b9860008301886127b5565b612ba560208301876127b5565b612bb26040830186612acd565b612bbf6060830185612acd565b8181036080830152612bd18184612831565b90509695505050505050565b60006020820190508181036000830152612bf781846127c4565b905092915050565b60006040820190508181036000830152612c1981856127c4565b90508181036020830152612c2d81846127c4565b90509392505050565b6000602082019050612c4b6000830184612822565b92915050565b60006020820190508181036000830152612c6b818461286a565b905092915050565b60006020820190508181036000830152612c8c816128d4565b9050919050565b60006020820190508181036000830152612cac816128f7565b9050919050565b60006020820190508181036000830152612ccc8161291a565b9050919050565b60006020820190508181036000830152612cec8161293d565b9050919050565b60006020820190508181036000830152612d0c81612960565b9050919050565b60006020820190508181036000830152612d2c81612983565b9050919050565b60006020820190508181036000830152612d4c816129a6565b9050919050565b60006020820190508181036000830152612d6c816129c9565b9050919050565b60006020820190508181036000830152612d8c816129ec565b9050919050565b60006020820190508181036000830152612dac81612a0f565b9050919050565b60006020820190508181036000830152612dcc81612a32565b9050919050565b60006020820190508181036000830152612dec81612a55565b9050919050565b60006020820190508181036000830152612e0c81612a78565b9050919050565b60006020820190508181036000830152612e2c81612a9b565b9050919050565b6000602082019050612e486000830184612acd565b92915050565b6000604082019050612e636000830185612acd565b612e706020830184612acd565b9392505050565b6000612e81612e92565b9050612e8d8282613175565b919050565b6000604051905090565b600067ffffffffffffffff821115612eb757612eb66132ad565b5b602082029050602081019050919050565b600067ffffffffffffffff821115612ee357612ee26132ad565b5b602082029050602081019050919050565b600067ffffffffffffffff821115612f0f57612f0e6132ad565b5b612f18826132fe565b9050602081019050919050565b600067ffffffffffffffff821115612f4057612f3f6132ad565b5b612f49826132fe565b9050602081019050919050565b6000819050602082019050919050565b600081519050919050565b600081519050919050565b600081519050919050565b6000602082019050919050565b600082825260208201905092915050565b600082825260208201905092915050565b600082825260208201905092915050565b600081905092915050565b6000612fdd826130f7565b9150612fe8836130f7565b9250827fffffffffffffffffffffffffffffffffffffffffffffffffffffffffffffffff0382111561301d5761301c613220565b5b828201905092915050565b6000613033826130f7565b915061303e836130f7565b92508261304e5761304d61324f565b5b828204905092915050565b6000613064826130f7565b915061306f836130f7565b92508282101561308257613081613220565b5b828203905092915050565b6000613098826130d7565b9050919050565b60008115159050919050565b60007fffffffff0000000000000000000000000000000000000000000000000000000082169050919050565b600073ffffffffffffffffffffffffffffffffffffffff82169050919050565b6000819050919050565b82818337600083830152505050565b60005b8381101561312e578082015181840152602081019050613113565b8381111561313d576000848401525b50505050565b6000600282049050600182168061315b57607f821691505b6020821081141561316f5761316e61327e565b5b50919050565b61317e826132fe565b810181811067ffffffffffffffff8211171561319d5761319c6132ad565b5b80604052505050565b60006131b1826130f7565b91507fffffffffffffffffffffffffffffffffffffffffffffffffffffffffffffffff8214156131e4576131e3613220565b5b600182019050919050565b60006131fa826130f7565b9150613205836130f7565b9250826132155761321461324f565b5b828206905092915050565b7f4e487b7100000000000000000000000000000000000000000000000000000000600052601160045260246000fd5b7f4e487b7100000000000000000000000000000000000000000000000000000000600052601260045260246000fd5b7f4e487b7100000000000000000000000000000000000000000000000000000000600052602260045260246000fd5b7f4e487b7100000000000000000000000000000000000000000000000000000000600052604160045260246000fd5b600060033d11156132fb5760046000803e6132f860005161330f565b90505b90565b6000601f19601f8301169050919050565b60008160e01c9050919050565b7f455243313135353a207472616e7366657220746f206e6f6e204552433131353560008201527f526563656976657220696d706c656d656e746572000000000000000000000000602082015250565b7f455243313135353a204552433131353552656365697665722072656a6563746560008201527f6420746f6b656e73000000000000000000000000000000000000000000000000602082015250565b7f455243313135353a2062616c616e636520717565727920666f7220746865207a60008201527f65726f2061646472657373000000000000000000000000000000000000000000602082015250565b7f4f776e61626c653a206e6577206f776e657220697320746865207a65726f206160008201527f6464726573730000000000000000000000000000000000000000000000000000602082015250565b7f455243313135353a206275726e20616d6f756e7420657863656564732062616c60008201527f616e636500000000000000000000000000000000000000000000000000000000602082015250565b7f455243313135353a2063616c6c6572206973206e6f74206f776e6572206e6f7260008201527f20617070726f7665640000000000000000000000000000000000000000000000602082015250565b7f455243313135353a207472616e7366657220746f20746865207a65726f20616460008201527f6472657373000000000000000000000000000000000000000000000000000000602082015250565b7f455243313135353a207472616e736665722063616c6c6572206973206e6f742060008201527f6f776e6572206e6f7220617070726f7665640000000000000000000000000000602082015250565b7f455243313135353a206275726e2066726f6d20746865207a65726f206164647260008201527f6573730000000000000000000000000000000000000000000000000000000000602082015250565b7f455243313135353a20696e73756666696369656e742062616c616e636520666f60008201527f72207472616e7366657200000000000000000000000000000000000000000000602082015250565b7f4f776e61626c653a2063616c6c6572206973206e6f7420746865206f776e6572600082015250565b7f455243313135353a2073657474696e6720617070726f76616c2073746174757360008201527f20666f722073656c660000000000000000000000000000000000000000000000602082015250565b7f455243313135353a206163636f756e747320616e6420696473206c656e67746860008201527f206d69736d617463680000000000000000000000000000000000000000000000602082015250565b7f455243313135353a2069647320616e6420616d6f756e7473206c656e6774682060008201527f6d69736d61746368000000000000000000000000000000000000000000000000602082015250565b600060443d1015613758576137db565b613760612e92565b60043d036004823e80513d602482011167ffffffffffffffff821117156137885750506137db565b808201805167ffffffffffffffff8111156137a657505050506137db565b80602083010160043d0385018111156137c35750505050506137db565b6137d282602001850186613175565b82955050505050505b90565b6137e78161308d565b81146137f257600080fd5b50565b6137fe8161309f565b811461380957600080fd5b50565b613815816130ab565b811461382057600080fd5b50565b61382c816130f7565b811461383757600080fd5b5056fea26469706673582212208c51ba1a4aadebec38bf652f846b8e6f8af26e7d5bad0a26987ecd3b66aecced64736f6c63430008040033",
  "linkReferences": {},
  "deployedLinkReferences": {}
}